{
  "_format": "hh-sol-artifact-1",
  "contractName": "HealthRecord",
  "sourceName": "contracts/HealthRecord.sol",
  "abi": [
    {
      "anonymous": false,
      "inputs": [
        {
          "indexed": false,
          "internalType": "address",
          "name": "user",
          "type": "address"
        },
        {
          "indexed": false,
          "internalType": "string",
          "name": "cid",
          "type": "string"
        },
        {
          "indexed": false,
          "internalType": "string",
          "name": "recordType",
          "type": "string"
        }
      ],
      "name": "RecordAdded",
      "type": "event"
    },
    {
      "inputs": [
        {
          "internalType": "string",
          "name": "_cid",
          "type": "string"
        },
        {
          "internalType": "string",
          "name": "_recordType",
          "type": "string"
        }
      ],
      "name": "addRecord",
      "outputs": [],
      "stateMutability": "nonpayable",
      "type": "function"
    },
    {
      "inputs": [
        {
          "internalType": "address",
          "name": "_user",
          "type": "address"
        }
      ],
      "name": "getRecords",
      "outputs": [
        {
          "components": [
            {
              "internalType": "string",
              "name": "cid",
              "type": "string"
            },
            {
              "internalType": "string",
              "name": "recordType",
              "type": "string"
            },
            {
              "internalType": "uint256",
              "name": "timestamp",
              "type": "uint256"
            }
          ],
          "internalType": "struct HealthRecord.Record[]",
          "name": "",
          "type": "tuple[]"
        }
      ],
      "stateMutability": "view",
      "type": "function"
    }
  ],
  "bytecode": "0x6080604052348015600f57600080fd5b50610b2d8061001f6000396000f3fe608060405234801561001057600080fd5b50600436106100365760003560e01c8063a0076e841461003b578063c95962481461006b575b600080fd5b610055600480360381019061005091906103bd565b610087565b60405161006291906105ac565b60405180910390f35b61008560048036038101906100809190610703565b610252565b005b60606000808373ffffffffffffffffffffffffffffffffffffffff1673ffffffffffffffffffffffffffffffffffffffff168152602001908152602001600020805480602002602001604051908101604052809291908181526020016000905b82821015610247578382906000526020600020906003020160405180606001604052908160008201805461011a906107aa565b80601f0160208091040260200160405190810160405280929190818152602001828054610146906107aa565b80156101935780601f1061016857610100808354040283529160200191610193565b820191906000526020600020905b81548152906001019060200180831161017657829003601f168201915b505050505081526020016001820180546101ac906107aa565b80601f01602080910402602001604051908101604052809291908181526020018280546101d8906107aa565b80156102255780601f106101fa57610100808354040283529160200191610225565b820191906000526020600020905b81548152906001019060200180831161020857829003601f168201915b50505050508152602001600282015481525050815260200190600101906100e7565b505050509050919050565b6000803373ffffffffffffffffffffffffffffffffffffffff1673ffffffffffffffffffffffffffffffffffffffff168152602001908152602001600020604051806060016040528084815260200183815260200142815250908060018154018082558091505060019003906000526020600020906003020160009091909190915060008201518160000190816102e99190610987565b5060208201518160010190816102ff9190610987565b506040820151816002015550507fdb700a91de0991890ad5b3c2f696ac597656f7499d0643239838f5033a15fb4233838360405161033f93929190610ab2565b60405180910390a15050565b6000604051905090565b600080fd5b600080fd5b600073ffffffffffffffffffffffffffffffffffffffff82169050919050565b600061038a8261035f565b9050919050565b61039a8161037f565b81146103a557600080fd5b50565b6000813590506103b781610391565b92915050565b6000602082840312156103d3576103d2610355565b5b60006103e1848285016103a8565b91505092915050565b600081519050919050565b600082825260208201905092915050565b6000819050602082019050919050565b600081519050919050565b600082825260208201905092915050565b60005b83811015610450578082015181840152602081019050610435565b60008484015250505050565b6000601f19601f8301169050919050565b600061047882610416565b6104828185610421565b9350610492818560208601610432565b61049b8161045c565b840191505092915050565b6000819050919050565b6104b9816104a6565b82525050565b600060608301600083015184820360008601526104dc828261046d565b915050602083015184820360208601526104f6828261046d565b915050604083015161050b60408601826104b0565b508091505092915050565b600061052283836104bf565b905092915050565b6000602082019050919050565b6000610542826103ea565b61054c81856103f5565b93508360208202850161055e85610406565b8060005b8581101561059a578484038952815161057b8582610516565b94506105868361052a565b925060208a01995050600181019050610562565b50829750879550505050505092915050565b600060208201905081810360008301526105c68184610537565b905092915050565b600080fd5b600080fd5b7f4e487b7100000000000000000000000000000000000000000000000000000000600052604160045260246000fd5b6106108261045c565b810181811067ffffffffffffffff8211171561062f5761062e6105d8565b5b80604052505050565b600061064261034b565b905061064e8282610607565b919050565b600067ffffffffffffffff82111561066e5761066d6105d8565b5b6106778261045c565b9050602081019050919050565b82818337600083830152505050565b60006106a66106a184610653565b610638565b9050828152602081018484840111156106c2576106c16105d3565b5b6106cd848285610684565b509392505050565b600082601f8301126106ea576106e96105ce565b5b81356106fa848260208601610693565b91505092915050565b6000806040838503121561071a57610719610355565b5b600083013567ffffffffffffffff8111156107385761073761035a565b5b610744858286016106d5565b925050602083013567ffffffffffffffff8111156107655761076461035a565b5b610771858286016106d5565b9150509250929050565b7f4e487b7100000000000000000000000000000000000000000000000000000000600052602260045260246000fd5b600060028204905060018216806107c257607f821691505b6020821081036107d5576107d461077b565b5b50919050565b60008190508160005260206000209050919050565b60006020601f8301049050919050565b600082821b905092915050565b60006008830261083d7fffffffffffffffffffffffffffffffffffffffffffffffffffffffffffffffff82610800565b6108478683610800565b95508019841693508086168417925050509392505050565b6000819050919050565b600061088461087f61087a846104a6565b61085f565b6104a6565b9050919050565b6000819050919050565b61089e83610869565b6108b26108aa8261088b565b84845461080d565b825550505050565b600090565b6108c76108ba565b6108d2818484610895565b505050565b5b818110156108f6576108eb6000826108bf565b6001810190506108d8565b5050565b601f82111561093b5761090c816107db565b610915846107f0565b81016020851015610924578190505b610938610930856107f0565b8301826108d7565b50505b505050565b600082821c905092915050565b600061095e60001984600802610940565b1980831691505092915050565b6000610977838361094d565b9150826002028217905092915050565b61099082610416565b67ffffffffffffffff8111156109a9576109a86105d8565b5b6109b382546107aa565b6109be8282856108fa565b600060209050601f8311600181146109f157600084156109df578287015190505b6109e9858261096b565b865550610a51565b601f1984166109ff866107db565b60005b82811015610a2757848901518255600182019150602085019450602081019050610a02565b86831015610a445784890151610a40601f89168261094d565b8355505b6001600288020188555050505b505050505050565b610a628161037f565b82525050565b600082825260208201905092915050565b6000610a8482610416565b610a8e8185610a68565b9350610a9e818560208601610432565b610aa78161045c565b840191505092915050565b6000606082019050610ac76000830186610a59565b8181036020830152610ad98185610a79565b90508181036040830152610aed8184610a79565b905094935050505056fea2646970667358221220cdace3b0d96c547c8a1320bb18fb0bb327e6a4b2beec093a13431256c3c6832f64736f6c634300081c0033",
  "linkReferences": {},
  "deployedLinkReferences": {}
}