{"contracts/HealthRecord.sol":{"HealthRecord":{"abi":[{"anonymous":false,"inputs":[{"indexed":false,"internalType":"address","name":"user","type":"address"},{"indexed":false,"internalType":"string","name":"cid","type":"string"},{"indexed":false,"internalType":"string","name":"recordType","type":"string"}],"name":"RecordAdded","type":"event"},{"inputs":[{"internalType":"string","name":"_cid","type":"string"},{"internalType":"string","name":"_recordType","type":"string"}],"name":"addRecord","outputs":[],"stateMutability":"nonpayable","type":"function"},{"inputs":[{"internalType":"address","name":"_user","type":"address"}],"name":"getRecords","outputs":[{"components":[{"internalType":"string","name":"cid","type":"string"},{"internalType":"string","name":"recordType","type":"string"},{"internalType":"uint256","name":"timestamp","type":"uint256"}],"internalType":"struct HealthRecord.Record[]","name":"","type":"tuple[]"}],"stateMutability":"view","type":"function"}],"evm":{"bytecode":{"linkReferences":{},"object":"6080604052348015600f57600080fd5b50610b2d8061001f6000396000f3fe608060405234801561001057600080fd5b50600436106100365760003560e01c8063a0076e841461003b578063c95962481461006b575b600080fd5b610055600480360381019061005091906103bd565b610087565b60405161006291906105ac565b60405180910390f35b61008560048036038101906100809190610703565b610252565b005b60606000808373ffffffffffffffffffffffffffffffffffffffff1673ffffffffffffffffffffffffffffffffffffffff168152602001908152602001600020805480602002602001604051908101604052809291908181526020016000905b82821015610247578382906000526020600020906003020160405180606001604052908160008201805461011a906107aa565b80601f0160208091040260200160405190810160405280929190818152602001828054610146906107aa565b80156101935780601f1061016857610100808354040283529160200191610193565b820191906000526020600020905b81548152906001019060200180831161017657829003601f168201915b505050505081526020016001820180546101ac906107aa565b80601f01602080910402602001604051908101604052809291908181526020018280546101d8906107aa565b80156102255780601f106101fa57610100808354040283529160200191610225565b820191906000526020600020905b81548152906001019060200180831161020857829003601f168201915b50505050508152602001600282015481525050815260200190600101906100e7565b505050509050919050565b6000803373ffffffffffffffffffffffffffffffffffffffff1673ffffffffffffffffffffffffffffffffffffffff168152602001908152602001600020604051806060016040528084815260200183815260200142815250908060018154018082558091505060019003906000526020600020906003020160009091909190915060008201518160000190816102e99190610987565b5060208201518160010190816102ff9190610987565b506040820151816002015550507fdb700a91de0991890ad5b3c2f696ac597656f7499d0643239838f5033a15fb4233838360405161033f93929190610ab2565b60405180910390a15050565b6000604051905090565b600080fd5b600080fd5b600073ffffffffffffffffffffffffffffffffffffffff82169050919050565b600061038a8261035f565b9050919050565b61039a8161037f565b81146103a557600080fd5b50565b6000813590506103b781610391565b92915050565b6000602082840312156103d3576103d2610355565b5b60006103e1848285016103a8565b91505092915050565b600081519050919050565b600082825260208201905092915050565b6000819050602082019050919050565b600081519050919050565b600082825260208201905092915050565b60005b83811015610450578082015181840152602081019050610435565b60008484015250505050565b6000601f19601f8301169050919050565b600061047882610416565b6104828185610421565b9350610492818560208601610432565b61049b8161045c565b840191505092915050565b6000819050919050565b6104b9816104a6565b82525050565b600060608301600083015184820360008601526104dc828261046d565b915050602083015184820360208601526104f6828261046d565b915050604083015161050b60408601826104b0565b508091505092915050565b600061052283836104bf565b905092915050565b6000602082019050919050565b6000610542826103ea565b61054c81856103f5565b93508360208202850161055e85610406565b8060005b8581101561059a578484038952815161057b8582610516565b94506105868361052a565b925060208a01995050600181019050610562565b50829750879550505050505092915050565b600060208201905081810360008301526105c68184610537565b905092915050565b600080fd5b600080fd5b7f4e487b7100000000000000000000000000000000000000000000000000000000600052604160045260246000fd5b6106108261045c565b810181811067ffffffffffffffff8211171561062f5761062e6105d8565b5b80604052505050565b600061064261034b565b905061064e8282610607565b919050565b600067ffffffffffffffff82111561066e5761066d6105d8565b5b6106778261045c565b9050602081019050919050565b82818337600083830152505050565b60006106a66106a184610653565b610638565b9050828152602081018484840111156106c2576106c16105d3565b5b6106cd848285610684565b509392505050565b600082601f8301126106ea576106e96105ce565b5b81356106fa848260208601610693565b91505092915050565b6000806040838503121561071a57610719610355565b5b600083013567ffffffffffffffff8111156107385761073761035a565b5b610744858286016106d5565b925050602083013567ffffffffffffffff8111156107655761076461035a565b5b610771858286016106d5565b9150509250929050565b7f4e487b7100000000000000000000000000000000000000000000000000000000600052602260045260246000fd5b600060028204905060018216806107c257607f821691505b6020821081036107d5576107d461077b565b5b50919050565b60008190508160005260206000209050919050565b60006020601f8301049050919050565b600082821b905092915050565b60006008830261083d7fffffffffffffffffffffffffffffffffffffffffffffffffffffffffffffffff82610800565b6108478683610800565b95508019841693508086168417925050509392505050565b6000819050919050565b600061088461087f61087a846104a6565b61085f565b6104a6565b9050919050565b6000819050919050565b61089e83610869565b6108b26108aa8261088b565b84845461080d565b825550505050565b600090565b6108c76108ba565b6108d2818484610895565b505050565b5b818110156108f6576108eb6000826108bf565b6001810190506108d8565b5050565b601f82111561093b5761090c816107db565b610915846107f0565b81016020851015610924578190505b610938610930856107f0565b8301826108d7565b50505b505050565b600082821c905092915050565b600061095e60001984600802610940565b1980831691505092915050565b6000610977838361094d565b9150826002028217905092915050565b61099082610416565b67ffffffffffffffff8111156109a9576109a86105d8565b5b6109b382546107aa565b6109be8282856108fa565b600060209050601f8311600181146109f157600084156109df578287015190505b6109e9858261096b565b865550610a51565b601f1984166109ff866107db565b60005b82811015610a2757848901518255600182019150602085019450602081019050610a02565b86831015610a445784890151610a40601f89168261094d565b8355505b6001600288020188555050505b505050505050565b610a628161037f565b82525050565b600082825260208201905092915050565b6000610a8482610416565b610a8e8185610a68565b9350610a9e818560208601610432565b610aa78161045c565b840191505092915050565b6000606082019050610ac76000830186610a59565b8181036020830152610ad98185610a79565b90508181036040830152610aed8184610a79565b905094935050505056fea2646970667358221220cdace3b0d96c547c8a1320bb18fb0bb327e6a4b2beec093a13431256c3c6832f64736f6c634300081c0033","opcodes":"PUSH1 0x80 PUSH1 0x40 MSTORE CALLVALUE DUP1 ISZERO PUSH1 0xF JUMPI PUSH1 0x0 DUP1 REVERT JUMPDEST POP PUSH2 0xB2D DUP1 PUSH2 0x1F PUSH1 0x0 CODECOPY PUSH1 0x0 RETURN INVALID PUSH1 0x80 PUSH1 0x40 MSTORE CALLVALUE DUP1 ISZERO PUSH2 0x10 JUMPI PUSH1 0x0 DUP1 REVERT JUMPDEST POP PUSH1 0x4 CALLDATASIZE LT PUSH2 0x36 JUMPI PUSH1 0x0 CALLDATALOAD PUSH1 0xE0 SHR DUP1 PUSH4 0xA0076E84 EQ PUSH2 0x3B JUMPI DUP1 PUSH4 0xC9596248 EQ PUSH2 0x6B JUMPI JUMPDEST PUSH1 0x0 DUP1 REVERT JUMPDEST PUSH2 0x55 PUSH1 0x4 DUP1 CALLDATASIZE SUB DUP2 ADD SWAP1 PUSH2 0x50 SWAP2 SWAP1 PUSH2 0x3BD JUMP JUMPDEST PUSH2 0x87 JUMP JUMPDEST PUSH1 0x40 MLOAD PUSH2 0x62 SWAP2 SWAP1 PUSH2 0x5AC JUMP JUMPDEST PUSH1 0x40 MLOAD DUP1 SWAP2 SUB SWAP1 RETURN JUMPDEST PUSH2 0x85 PUSH1 0x4 DUP1 CALLDATASIZE SUB DUP2 ADD SWAP1 PUSH2 0x80 SWAP2 SWAP1 PUSH2 0x703 JUMP JUMPDEST PUSH2 0x252 JUMP JUMPDEST STOP JUMPDEST PUSH1 0x60 PUSH1 0x0 DUP1 DUP4 PUSH20 0xFFFFFFFFFFFFFFFFFFFFFFFFFFFFFFFFFFFFFFFF AND PUSH20 0xFFFFFFFFFFFFFFFFFFFFFFFFFFFFFFFFFFFFFFFF AND DUP2 MSTORE PUSH1 0x20 ADD SWAP1 DUP2 MSTORE PUSH1 0x20 ADD PUSH1 0x0 KECCAK256 DUP1 SLOAD DUP1 PUSH1 0x20 MUL PUSH1 0x20 ADD PUSH1 0x40 MLOAD SWAP1 DUP2 ADD PUSH1 0x40 MSTORE DUP1 SWAP3 SWAP2 SWAP1 DUP2 DUP2 MSTORE PUSH1 0x20 ADD PUSH1 0x0 SWAP1 JUMPDEST DUP3 DUP3 LT ISZERO PUSH2 0x247 JUMPI DUP4 DUP3 SWAP1 PUSH1 0x0 MSTORE PUSH1 0x20 PUSH1 0x0 KECCAK256 SWAP1 PUSH1 0x3 MUL ADD PUSH1 0x40 MLOAD DUP1 PUSH1 0x60 ADD PUSH1 0x40 MSTORE SWAP1 DUP2 PUSH1 0x0 DUP3 ADD DUP1 SLOAD PUSH2 0x11A SWAP1 PUSH2 0x7AA JUMP JUMPDEST DUP1 PUSH1 0x1F ADD PUSH1 0x20 DUP1 SWAP2 DIV MUL PUSH1 0x20 ADD PUSH1 0x40 MLOAD SWAP1 DUP2 ADD PUSH1 0x40 MSTORE DUP1 SWAP3 SWAP2 SWAP1 DUP2 DUP2 MSTORE PUSH1 0x20 ADD DUP3 DUP1 SLOAD PUSH2 0x146 SWAP1 PUSH2 0x7AA JUMP JUMPDEST DUP1 ISZERO PUSH2 0x193 JUMPI DUP1 PUSH1 0x1F LT PUSH2 0x168 JUMPI PUSH2 0x100 DUP1 DUP4 SLOAD DIV MUL DUP4 MSTORE SWAP2 PUSH1 0x20 ADD SWAP2 PUSH2 0x193 JUMP JUMPDEST DUP3 ADD SWAP2 SWAP1 PUSH1 0x0 MSTORE PUSH1 0x20 PUSH1 0x0 KECCAK256 SWAP1 JUMPDEST DUP2 SLOAD DUP2 MSTORE SWAP1 PUSH1 0x1 ADD SWAP1 PUSH1 0x20 ADD DUP1 DUP4 GT PUSH2 0x176 JUMPI DUP3 SWAP1 SUB PUSH1 0x1F AND DUP3 ADD SWAP2 JUMPDEST POP POP POP POP POP DUP2 MSTORE PUSH1 0x20 ADD PUSH1 0x1 DUP3 ADD DUP1 SLOAD PUSH2 0x1AC SWAP1 PUSH2 0x7AA JUMP JUMPDEST DUP1 PUSH1 0x1F ADD PUSH1 0x20 DUP1 SWAP2 DIV MUL PUSH1 0x20 ADD PUSH1 0x40 MLOAD SWAP1 DUP2 ADD PUSH1 0x40 MSTORE DUP1 SWAP3 SWAP2 SWAP1 DUP2 DUP2 MSTORE PUSH1 0x20 ADD DUP3 DUP1 SLOAD PUSH2 0x1D8 SWAP1 PUSH2 0x7AA JUMP JUMPDEST DUP1 ISZERO PUSH2 0x225 JUMPI DUP1 PUSH1 0x1F LT PUSH2 0x1FA JUMPI PUSH2 0x100 DUP1 DUP4 SLOAD DIV MUL DUP4 MSTORE SWAP2 PUSH1 0x20 ADD SWAP2 PUSH2 0x225 JUMP JUMPDEST DUP3 ADD SWAP2 SWAP1 PUSH1 0x0 MSTORE PUSH1 0x20 PUSH1 0x0 KECCAK256 SWAP1 JUMPDEST DUP2 SLOAD DUP2 MSTORE SWAP1 PUSH1 0x1 ADD SWAP1 PUSH1 0x20 ADD DUP1 DUP4 GT PUSH2 0x208 JUMPI DUP3 SWAP1 SUB PUSH1 0x1F AND DUP3 ADD SWAP2 JUMPDEST POP POP POP POP POP DUP2 MSTORE PUSH1 0x20 ADD PUSH1 0x2 DUP3 ADD SLOAD DUP2 MSTORE POP POP DUP2 MSTORE PUSH1 0x20 ADD SWAP1 PUSH1 0x1 ADD SWAP1 PUSH2 0xE7 JUMP JUMPDEST POP POP POP POP SWAP1 POP SWAP2 SWAP1 POP JUMP JUMPDEST PUSH1 0x0 DUP1 CALLER PUSH20 0xFFFFFFFFFFFFFFFFFFFFFFFFFFFFFFFFFFFFFFFF AND PUSH20 0xFFFFFFFFFFFFFFFFFFFFFFFFFFFFFFFFFFFFFFFF AND DUP2 MSTORE PUSH1 0x20 ADD SWAP1 DUP2 MSTORE PUSH1 0x20 ADD PUSH1 0x0 KECCAK256 PUSH1 0x40 MLOAD DUP1 PUSH1 0x60 ADD PUSH1 0x40 MSTORE DUP1 DUP5 DUP2 MSTORE PUSH1 0x20 ADD DUP4 DUP2 MSTORE PUSH1 0x20 ADD TIMESTAMP DUP2 MSTORE POP SWAP1 DUP1 PUSH1 0x1 DUP2 SLOAD ADD DUP1 DUP3 SSTORE DUP1 SWAP2 POP POP PUSH1 0x1 SWAP1 SUB SWAP1 PUSH1 0x0 MSTORE PUSH1 0x20 PUSH1 0x0 KECCAK256 SWAP1 PUSH1 0x3 MUL ADD PUSH1 0x0 SWAP1 SWAP2 SWAP1 SWAP2 SWAP1 SWAP2 POP PUSH1 0x0 DUP3 ADD MLOAD DUP2 PUSH1 0x0 ADD SWAP1 DUP2 PUSH2 0x2E9 SWAP2 SWAP1 PUSH2 0x987 JUMP JUMPDEST POP PUSH1 0x20 DUP3 ADD MLOAD DUP2 PUSH1 0x1 ADD SWAP1 DUP2 PUSH2 0x2FF SWAP2 SWAP1 PUSH2 0x987 JUMP JUMPDEST POP PUSH1 0x40 DUP3 ADD MLOAD DUP2 PUSH1 0x2 ADD SSTORE POP POP PUSH32 0xDB700A91DE0991890AD5B3C2F696AC597656F7499D0643239838F5033A15FB42 CALLER DUP4 DUP4 PUSH1 0x40 MLOAD PUSH2 0x33F SWAP4 SWAP3 SWAP2 SWAP1 PUSH2 0xAB2 JUMP JUMPDEST PUSH1 0x40 MLOAD DUP1 SWAP2 SUB SWAP1 LOG1 POP POP JUMP JUMPDEST PUSH1 0x0 PUSH1 0x40 MLOAD SWAP1 POP SWAP1 JUMP JUMPDEST PUSH1 0x0 DUP1 REVERT JUMPDEST PUSH1 0x0 DUP1 REVERT JUMPDEST PUSH1 0x0 PUSH20 0xFFFFFFFFFFFFFFFFFFFFFFFFFFFFFFFFFFFFFFFF DUP3 AND SWAP1 POP SWAP2 SWAP1 POP JUMP JUMPDEST PUSH1 0x0 PUSH2 0x38A DUP3 PUSH2 0x35F JUMP JUMPDEST SWAP1 POP SWAP2 SWAP1 POP JUMP JUMPDEST PUSH2 0x39A DUP2 PUSH2 0x37F JUMP JUMPDEST DUP2 EQ PUSH2 0x3A5 JUMPI PUSH1 0x0 DUP1 REVERT JUMPDEST POP JUMP JUMPDEST PUSH1 0x0 DUP2 CALLDATALOAD SWAP1 POP PUSH2 0x3B7 DUP2 PUSH2 0x391 JUMP JUMPDEST SWAP3 SWAP2 POP POP JUMP JUMPDEST PUSH1 0x0 PUSH1 0x20 DUP3 DUP5 SUB SLT ISZERO PUSH2 0x3D3 JUMPI PUSH2 0x3D2 PUSH2 0x355 JUMP JUMPDEST JUMPDEST PUSH1 0x0 PUSH2 0x3E1 DUP5 DUP3 DUP6 ADD PUSH2 0x3A8 JUMP JUMPDEST SWAP2 POP POP SWAP3 SWAP2 POP POP JUMP JUMPDEST PUSH1 0x0 DUP2 MLOAD SWAP1 POP SWAP2 SWAP1 POP JUMP JUMPDEST PUSH1 0x0 DUP3 DUP3 MSTORE PUSH1 0x20 DUP3 ADD SWAP1 POP SWAP3 SWAP2 POP POP JUMP JUMPDEST PUSH1 0x0 DUP2 SWAP1 POP PUSH1 0x20 DUP3 ADD SWAP1 POP SWAP2 SWAP1 POP JUMP JUMPDEST PUSH1 0x0 DUP2 MLOAD SWAP1 POP SWAP2 SWAP1 POP JUMP JUMPDEST PUSH1 0x0 DUP3 DUP3 MSTORE PUSH1 0x20 DUP3 ADD SWAP1 POP SWAP3 SWAP2 POP POP JUMP JUMPDEST PUSH1 0x0 JUMPDEST DUP4 DUP2 LT ISZERO PUSH2 0x450 JUMPI DUP1 DUP3 ADD MLOAD DUP2 DUP5 ADD MSTORE PUSH1 0x20 DUP2 ADD SWAP1 POP PUSH2 0x435 JUMP JUMPDEST PUSH1 0x0 DUP5 DUP5 ADD MSTORE POP POP POP POP JUMP JUMPDEST PUSH1 0x0 PUSH1 0x1F NOT PUSH1 0x1F DUP4 ADD AND SWAP1 POP SWAP2 SWAP1 POP JUMP JUMPDEST PUSH1 0x0 PUSH2 0x478 DUP3 PUSH2 0x416 JUMP JUMPDEST PUSH2 0x482 DUP2 DUP6 PUSH2 0x421 JUMP JUMPDEST SWAP4 POP PUSH2 0x492 DUP2 DUP6 PUSH1 0x20 DUP7 ADD PUSH2 0x432 JUMP JUMPDEST PUSH2 0x49B DUP2 PUSH2 0x45C JUMP JUMPDEST DUP5 ADD SWAP2 POP POP SWAP3 SWAP2 POP POP JUMP JUMPDEST PUSH1 0x0 DUP2 SWAP1 POP SWAP2 SWAP1 POP JUMP JUMPDEST PUSH2 0x4B9 DUP2 PUSH2 0x4A6 JUMP JUMPDEST DUP3 MSTORE POP POP JUMP JUMPDEST PUSH1 0x0 PUSH1 0x60 DUP4 ADD PUSH1 0x0 DUP4 ADD MLOAD DUP5 DUP3 SUB PUSH1 0x0 DUP7 ADD MSTORE PUSH2 0x4DC DUP3 DUP3 PUSH2 0x46D JUMP JUMPDEST SWAP2 POP POP PUSH1 0x20 DUP4 ADD MLOAD DUP5 DUP3 SUB PUSH1 0x20 DUP7 ADD MSTORE PUSH2 0x4F6 DUP3 DUP3 PUSH2 0x46D JUMP JUMPDEST SWAP2 POP POP PUSH1 0x40 DUP4 ADD MLOAD PUSH2 0x50B PUSH1 0x40 DUP7 ADD DUP3 PUSH2 0x4B0 JUMP JUMPDEST POP DUP1 SWAP2 POP POP SWAP3 SWAP2 POP POP JUMP JUMPDEST PUSH1 0x0 PUSH2 0x522 DUP4 DUP4 PUSH2 0x4BF JUMP JUMPDEST SWAP1 POP SWAP3 SWAP2 POP POP JUMP JUMPDEST PUSH1 0x0 PUSH1 0x20 DUP3 ADD SWAP1 POP SWAP2 SWAP1 POP JUMP JUMPDEST PUSH1 0x0 PUSH2 0x542 DUP3 PUSH2 0x3EA JUMP JUMPDEST PUSH2 0x54C DUP2 DUP6 PUSH2 0x3F5 JUMP JUMPDEST SWAP4 POP DUP4 PUSH1 0x20 DUP3 MUL DUP6 ADD PUSH2 0x55E DUP6 PUSH2 0x406 JUMP JUMPDEST DUP1 PUSH1 0x0 JUMPDEST DUP6 DUP2 LT ISZERO PUSH2 0x59A JUMPI DUP5 DUP5 SUB DUP10 MSTORE DUP2 MLOAD PUSH2 0x57B DUP6 DUP3 PUSH2 0x516 JUMP JUMPDEST SWAP5 POP PUSH2 0x586 DUP4 PUSH2 0x52A JUMP JUMPDEST SWAP3 POP PUSH1 0x20 DUP11 ADD SWAP10 POP POP PUSH1 0x1 DUP2 ADD SWAP1 POP PUSH2 0x562 JUMP JUMPDEST POP DUP3 SWAP8 POP DUP8 SWAP6 POP POP POP POP POP POP SWAP3 SWAP2 POP POP JUMP JUMPDEST PUSH1 0x0 PUSH1 0x20 DUP3 ADD SWAP1 POP DUP2 DUP2 SUB PUSH1 0x0 DUP4 ADD MSTORE PUSH2 0x5C6 DUP2 DUP5 PUSH2 0x537 JUMP JUMPDEST SWAP1 POP SWAP3 SWAP2 POP POP JUMP JUMPDEST PUSH1 0x0 DUP1 REVERT JUMPDEST PUSH1 0x0 DUP1 REVERT JUMPDEST PUSH32 0x4E487B7100000000000000000000000000000000000000000000000000000000 PUSH1 0x0 MSTORE PUSH1 0x41 PUSH1 0x4 MSTORE PUSH1 0x24 PUSH1 0x0 REVERT JUMPDEST PUSH2 0x610 DUP3 PUSH2 0x45C JUMP JUMPDEST DUP2 ADD DUP2 DUP2 LT PUSH8 0xFFFFFFFFFFFFFFFF DUP3 GT OR ISZERO PUSH2 0x62F JUMPI PUSH2 0x62E PUSH2 0x5D8 JUMP JUMPDEST JUMPDEST DUP1 PUSH1 0x40 MSTORE POP POP POP JUMP JUMPDEST PUSH1 0x0 PUSH2 0x642 PUSH2 0x34B JUMP JUMPDEST SWAP1 POP PUSH2 0x64E DUP3 DUP3 PUSH2 0x607 JUMP JUMPDEST SWAP2 SWAP1 POP JUMP JUMPDEST PUSH1 0x0 PUSH8 0xFFFFFFFFFFFFFFFF DUP3 GT ISZERO PUSH2 0x66E JUMPI PUSH2 0x66D PUSH2 0x5D8 JUMP JUMPDEST JUMPDEST PUSH2 0x677 DUP3 PUSH2 0x45C JUMP JUMPDEST SWAP1 POP PUSH1 0x20 DUP2 ADD SWAP1 POP SWAP2 SWAP1 POP JUMP JUMPDEST DUP3 DUP2 DUP4 CALLDATACOPY PUSH1 0x0 DUP4 DUP4 ADD MSTORE POP POP POP JUMP JUMPDEST PUSH1 0x0 PUSH2 0x6A6 PUSH2 0x6A1 DUP5 PUSH2 0x653 JUMP JUMPDEST PUSH2 0x638 JUMP JUMPDEST SWAP1 POP DUP3 DUP2 MSTORE PUSH1 0x20 DUP2 ADD DUP5 DUP5 DUP5 ADD GT ISZERO PUSH2 0x6C2 JUMPI PUSH2 0x6C1 PUSH2 0x5D3 JUMP JUMPDEST JUMPDEST PUSH2 0x6CD DUP5 DUP3 DUP6 PUSH2 0x684 JUMP JUMPDEST POP SWAP4 SWAP3 POP POP POP JUMP JUMPDEST PUSH1 0x0 DUP3 PUSH1 0x1F DUP4 ADD SLT PUSH2 0x6EA JUMPI PUSH2 0x6E9 PUSH2 0x5CE JUMP JUMPDEST JUMPDEST DUP2 CALLDATALOAD PUSH2 0x6FA DUP5 DUP3 PUSH1 0x20 DUP7 ADD PUSH2 0x693 JUMP JUMPDEST SWAP2 POP POP SWAP3 SWAP2 POP POP JUMP JUMPDEST PUSH1 0x0 DUP1 PUSH1 0x40 DUP4 DUP6 SUB SLT ISZERO PUSH2 0x71A JUMPI PUSH2 0x719 PUSH2 0x355 JUMP JUMPDEST JUMPDEST PUSH1 0x0 DUP4 ADD CALLDATALOAD PUSH8 0xFFFFFFFFFFFFFFFF DUP2 GT ISZERO PUSH2 0x738 JUMPI PUSH2 0x737 PUSH2 0x35A JUMP JUMPDEST JUMPDEST PUSH2 0x744 DUP6 DUP3 DUP7 ADD PUSH2 0x6D5 JUMP JUMPDEST SWAP3 POP POP PUSH1 0x20 DUP4 ADD CALLDATALOAD PUSH8 0xFFFFFFFFFFFFFFFF DUP2 GT ISZERO PUSH2 0x765 JUMPI PUSH2 0x764 PUSH2 0x35A JUMP JUMPDEST JUMPDEST PUSH2 0x771 DUP6 DUP3 DUP7 ADD PUSH2 0x6D5 JUMP JUMPDEST SWAP2 POP POP SWAP3 POP SWAP3 SWAP1 POP JUMP JUMPDEST PUSH32 0x4E487B7100000000000000000000000000000000000000000000000000000000 PUSH1 0x0 MSTORE PUSH1 0x22 PUSH1 0x4 MSTORE PUSH1 0x24 PUSH1 0x0 REVERT JUMPDEST PUSH1 0x0 PUSH1 0x2 DUP3 DIV SWAP1 POP PUSH1 0x1 DUP3 AND DUP1 PUSH2 0x7C2 JUMPI PUSH1 0x7F DUP3 AND SWAP2 POP JUMPDEST PUSH1 0x20 DUP3 LT DUP2 SUB PUSH2 0x7D5 JUMPI PUSH2 0x7D4 PUSH2 0x77B JUMP JUMPDEST JUMPDEST POP SWAP2 SWAP1 POP JUMP JUMPDEST PUSH1 0x0 DUP2 SWAP1 POP DUP2 PUSH1 0x0 MSTORE PUSH1 0x20 PUSH1 0x0 KECCAK256 SWAP1 POP SWAP2 SWAP1 POP JUMP JUMPDEST PUSH1 0x0 PUSH1 0x20 PUSH1 0x1F DUP4 ADD DIV SWAP1 POP SWAP2 SWAP1 POP JUMP JUMPDEST PUSH1 0x0 DUP3 DUP3 SHL SWAP1 POP SWAP3 SWAP2 POP POP JUMP JUMPDEST PUSH1 0x0 PUSH1 0x8 DUP4 MUL PUSH2 0x83D PUSH32 0xFFFFFFFFFFFFFFFFFFFFFFFFFFFFFFFFFFFFFFFFFFFFFFFFFFFFFFFFFFFFFFFF DUP3 PUSH2 0x800 JUMP JUMPDEST PUSH2 0x847 DUP7 DUP4 PUSH2 0x800 JUMP JUMPDEST SWAP6 POP DUP1 NOT DUP5 AND SWAP4 POP DUP1 DUP7 AND DUP5 OR SWAP3 POP POP POP SWAP4 SWAP3 POP POP POP JUMP JUMPDEST PUSH1 0x0 DUP2 SWAP1 POP SWAP2 SWAP1 POP JUMP JUMPDEST PUSH1 0x0 PUSH2 0x884 PUSH2 0x87F PUSH2 0x87A DUP5 PUSH2 0x4A6 JUMP JUMPDEST PUSH2 0x85F JUMP JUMPDEST PUSH2 0x4A6 JUMP JUMPDEST SWAP1 POP SWAP2 SWAP1 POP JUMP JUMPDEST PUSH1 0x0 DUP2 SWAP1 POP SWAP2 SWAP1 POP JUMP JUMPDEST PUSH2 0x89E DUP4 PUSH2 0x869 JUMP JUMPDEST PUSH2 0x8B2 PUSH2 0x8AA DUP3 PUSH2 0x88B JUMP JUMPDEST DUP5 DUP5 SLOAD PUSH2 0x80D JUMP JUMPDEST DUP3 SSTORE POP POP POP POP JUMP JUMPDEST PUSH1 0x0 SWAP1 JUMP JUMPDEST PUSH2 0x8C7 PUSH2 0x8BA JUMP JUMPDEST PUSH2 0x8D2 DUP2 DUP5 DUP5 PUSH2 0x895 JUMP JUMPDEST POP POP POP JUMP JUMPDEST JUMPDEST DUP2 DUP2 LT ISZERO PUSH2 0x8F6 JUMPI PUSH2 0x8EB PUSH1 0x0 DUP3 PUSH2 0x8BF JUMP JUMPDEST PUSH1 0x1 DUP2 ADD SWAP1 POP PUSH2 0x8D8 JUMP JUMPDEST POP POP JUMP JUMPDEST PUSH1 0x1F DUP3 GT ISZERO PUSH2 0x93B JUMPI PUSH2 0x90C DUP2 PUSH2 0x7DB JUMP JUMPDEST PUSH2 0x915 DUP5 PUSH2 0x7F0 JUMP JUMPDEST DUP2 ADD PUSH1 0x20 DUP6 LT ISZERO PUSH2 0x924 JUMPI DUP2 SWAP1 POP JUMPDEST PUSH2 0x938 PUSH2 0x930 DUP6 PUSH2 0x7F0 JUMP JUMPDEST DUP4 ADD DUP3 PUSH2 0x8D7 JUMP JUMPDEST POP POP JUMPDEST POP POP POP JUMP JUMPDEST PUSH1 0x0 DUP3 DUP3 SHR SWAP1 POP SWAP3 SWAP2 POP POP JUMP JUMPDEST PUSH1 0x0 PUSH2 0x95E PUSH1 0x0 NOT DUP5 PUSH1 0x8 MUL PUSH2 0x940 JUMP JUMPDEST NOT DUP1 DUP4 AND SWAP2 POP POP SWAP3 SWAP2 POP POP JUMP JUMPDEST PUSH1 0x0 PUSH2 0x977 DUP4 DUP4 PUSH2 0x94D JUMP JUMPDEST SWAP2 POP DUP3 PUSH1 0x2 MUL DUP3 OR SWAP1 POP SWAP3 SWAP2 POP POP JUMP JUMPDEST PUSH2 0x990 DUP3 PUSH2 0x416 JUMP JUMPDEST PUSH8 0xFFFFFFFFFFFFFFFF DUP2 GT ISZERO PUSH2 0x9A9 JUMPI PUSH2 0x9A8 PUSH2 0x5D8 JUMP JUMPDEST JUMPDEST PUSH2 0x9B3 DUP3 SLOAD PUSH2 0x7AA JUMP JUMPDEST PUSH2 0x9BE DUP3 DUP3 DUP6 PUSH2 0x8FA JUMP JUMPDEST PUSH1 0x0 PUSH1 0x20 SWAP1 POP PUSH1 0x1F DUP4 GT PUSH1 0x1 DUP2 EQ PUSH2 0x9F1 JUMPI PUSH1 0x0 DUP5 ISZERO PUSH2 0x9DF JUMPI DUP3 DUP8 ADD MLOAD SWAP1 POP JUMPDEST PUSH2 0x9E9 DUP6 DUP3 PUSH2 0x96B JUMP JUMPDEST DUP7 SSTORE POP PUSH2 0xA51 JUMP JUMPDEST PUSH1 0x1F NOT DUP5 AND PUSH2 0x9FF DUP7 PUSH2 0x7DB JUMP JUMPDEST PUSH1 0x0 JUMPDEST DUP3 DUP2 LT ISZERO PUSH2 0xA27 JUMPI DUP5 DUP10 ADD MLOAD DUP3 SSTORE PUSH1 0x1 DUP3 ADD SWAP2 POP PUSH1 0x20 DUP6 ADD SWAP5 POP PUSH1 0x20 DUP2 ADD SWAP1 POP PUSH2 0xA02 JUMP JUMPDEST DUP7 DUP4 LT ISZERO PUSH2 0xA44 JUMPI DUP5 DUP10 ADD MLOAD PUSH2 0xA40 PUSH1 0x1F DUP10 AND DUP3 PUSH2 0x94D JUMP JUMPDEST DUP4 SSTORE POP JUMPDEST PUSH1 0x1 PUSH1 0x2 DUP9 MUL ADD DUP9 SSTORE POP POP POP JUMPDEST POP POP POP POP POP POP JUMP JUMPDEST PUSH2 0xA62 DUP2 PUSH2 0x37F JUMP JUMPDEST DUP3 MSTORE POP POP JUMP JUMPDEST PUSH1 0x0 DUP3 DUP3 MSTORE PUSH1 0x20 DUP3 ADD SWAP1 POP SWAP3 SWAP2 POP POP JUMP JUMPDEST PUSH1 0x0 PUSH2 0xA84 DUP3 PUSH2 0x416 JUMP JUMPDEST PUSH2 0xA8E DUP2 DUP6 PUSH2 0xA68 JUMP JUMPDEST SWAP4 POP PUSH2 0xA9E DUP2 DUP6 PUSH1 0x20 DUP7 ADD PUSH2 0x432 JUMP JUMPDEST PUSH2 0xAA7 DUP2 PUSH2 0x45C JUMP JUMPDEST DUP5 ADD SWAP2 POP POP SWAP3 SWAP2 POP POP JUMP JUMPDEST PUSH1 0x0 PUSH1 0x60 DUP3 ADD SWAP1 POP PUSH2 0xAC7 PUSH1 0x0 DUP4 ADD DUP7 PUSH2 0xA59 JUMP JUMPDEST DUP2 DUP2 SUB PUSH1 0x20 DUP4 ADD MSTORE PUSH2 0xAD9 DUP2 DUP6 PUSH2 0xA79 JUMP JUMPDEST SWAP1 POP DUP2 DUP2 SUB PUSH1 0x40 DUP4 ADD MSTORE PUSH2 0xAED DUP2 DUP5 PUSH2 0xA79 JUMP JUMPDEST SWAP1 POP SWAP5 SWAP4 POP POP POP POP JUMP INVALID LOG2 PUSH5 0x6970667358 0x22 SLT KECCAK256 0xCD 0xAC 0xE3 0xB0 0xD9 PUSH13 0x547C8A1320BB18FB0BB327E6A4 0xB2 0xBE 0xEC MULMOD GASPRICE SGT NUMBER SLT JUMP 0xC3 0xC6 DUP4 0x2F PUSH5 0x736F6C6343 STOP ADDMOD SHR STOP CALLER "},"methodIdentifiers":{"addRecord(string,string)":"c9596248","getRecords(address)":"a0076e84"}}}}}